S00E000072656D6F74652E737265638A
S11300000C943A000C9457000C9457000C9457002D
S11300100C9457000C9457000C9457000C94570000
S11300200C9457000C9457000C9457000C945700F0
S11300300C9457000C9457000C9457000C945700E0
S11300400C9457000C9457000C9457000C945700D0
S11300500C9457000C9457000C9457000C945700C0
S11300600C9457000C9457006364696E6F70737539
S113007078585B0011241FBECFEFD8E0DEBFCDBFA0
S113008013E0A0E0B1E0E2E8F4E102C005900D92D3
S1130090A63AB107D9F725E0A6EAB3E001C01D925C
S11300A0AA3AB207E1F70E9485000C943F0A0C9427
S11300B00000E0ECF0E0908195FFFDCF8093C60056
S11300C080E090E00895E0ECF0E080818823ECF794
S11300D08091C60090E00895806480937C0085E35D
S11300E08A95F1F70000EAE7F0E08081806480837C
S11300F0808184FFFDCFEAE7F0E080818061808326
S113010080917800909179000895CF93DF93CDB7D3
S1130110DEB762970FB6F894DEBF0FBECDBF80E0A6
S113012091E09093A7058093A605E1E6F0E080E8CE
S1130130808310829FE294B991E095B993E097B9D6
S113014098B98AB91BB814BC15BC16BC17BC18BC2A
S11301501092800010928100109285001092840009
S113016010928700109286001092890010928800E5
S113017010928B0010928A001092B6001092B00078
S11301801092B1001092B2001092B3001092B40019
S113019010926E0010926F0010927000109269001D
S11301A01DBA109268001092C00098E19093C100AB
S11301B096E09093C2001092C50097E69093C40015
S11301C080BF10927F0010927E0080E480937C00B8
S11301D084E880937A0010927B0080E58CBD1DBC7E
S11301E01092BC000E949C030F2EFFE08F2EF1E0C2
S11301F09F2EF02D0F2EF3E1AF2EF1E0BF2EF02D48
S11302006894332434F88E010D5F1F4F0F2EF0E2F3
S1130210CF2EF1E0DF2EF02D0F2EF5E2EF2EF1E0E0
S1130220FF2EF02D9E012F5F3F4F39010F2EFDE170
S11302304F2EF1E05F2EF02D0F2EF3E12F2EF02D37
S11302400E94E70186E00E946C0089839A839F9351
S11302508F939F928F920E9400048A818F93898149
S11302608F93BF92AF921F923F921F930F930E945E
S11302702C0460E080E00E94FA01B80181E00E9451
S1130280230387E00E946C0089839A839F938F9352
S1130290DF92CF920E94000489819A818F5F9140FE
S11302A09F938F93FF92EF921F923F921F930F930E
S11302B00E942C0461E080E00E94FA01B80181E010
S11302C00E9423037F926F925F924F920E941604C2
S11302D00FB6F894DEBF0FBECDBF1816190674F51D
S11302E029813A81229EC001239E900D11249A8374
S11302F0898368EE73E00E94D803262F372F64E6C3
S113030070E00E94D8037F936F933F932F9380E311
S113031091E09F938F931F923F921F930F930E949C
S11303202C0463E080E00E94FA01B80181E00E949D
S113033023030FB6F894DEBF0FBECDBF85E00E9445
S11303406C009C01229EC001239E900D11249A836F
S1130350898368EE73E00E94D803262F372F64E662
S113036070E00E94D8037F936F933F932F938EE3A3
S113037091E09F938F931F923F921F930F930E943C
S11303802C0462E080E00E94FA01B80181E00E943E
S113039023030E9436033FEF81EE94E03150804006
S11303A09040E1F700C000000FB6F894DEBF0FBE26
S11303B0CDBF46CF2898613011F4299A01C02998FD
S11303C08EBD0DB407FEFDCF289A29980895ECEA56
S11303D0F3E084EA95E01192E817F907E1F7109247
S11303E0A9031092A80387EF91E09093A703809349
S11303F0A603089590E09C01220F331F820F931FE0
S1130400880F991F24E5629F800D911D11249093FC
S1130410AB038093AA0308950F931F93CF93DF93A5
S11304202091AA033091AB034091A8035091A903F2
S11304302417350724F43093A9032093A8036032CA
S113044048F1683908F4DEC0603C31F1623C31F1B6
S1130450673C31F1693C31F16A3C31F16E3C31F178
S1130460603E31F1623E31F1673E31F1683E31F177
S1130470693E31F16A3E31F16B3E31F16E3E31F14C
S11304806F3E31F1643F31F1693F31F16B3F31F13E
S113049064E925C064E923C065E821C063E81FC09E
S11304A060E81DC060E91BC068E819C06CE817C0AB
S11304B065E815C063E813C067E811C06AE80FC0B7
S11304C062E80DC068E80BC069E809C06CE807C0C1
S11304D06BE805C063E903C067E901C066E98130E0
S11304E0F1F470E0FB01EE0FFF1FEE0FFF1F6E0F24
S11304F07F1FFB01E255FF4FD901A455BC4FA90151
S11305004F545C4F8191880F8D93A417B507D1F791
S11305102B5F3F4F3093AB032093AA0358C0823024
S113052009F055C0C901845591094091A80350911F
S1130530A903841795070CF069C09093A9038093CD
S1130540A80364C08191880F982F9270492F440F9B
S1130550940F492F440F982F9470592F550F950FCE
S1130560990F990F942B582F5870509F502D112488
S1130570592B82958F70482F4270142F110F410F01
S1130580440F182F1170912F990F190F412B982F89
S11305909470192F110F910F990F990F492B982FC0
S11305A09870909F902D1124842F892B5883598300
S11305B08C9311968C93119722961296A617B707CF
S11305C009F6255F3F4F3093AB032093AA03809134
S11305D0AA039091AB032091A6033091A703281797
S11305E0390724F49093A7038093A6039C012F5FFB
S11305F03F4F3093AB032093AA03FC01E455FC4F17
S113060010821CC0813009F08ACF6BCF9923B4F0DB
S113061070E0FB01EE0FFF1FEE0FFF1F6E0F7F1F39
S1130620FB01E255FF4FE901C85ADC4FD901A4553B
S1130630BC4FB9016A547C4F08E184CFDF91CF915C
S11306401F910F9108951F93CF93DF93EB0168815E
S1130650662341F0182F2196812F0E940C02699184
S11306606111FACFDF91CF911F910895EF92FF921C
S11306700F931F93CF93DF938091A8039091A903C5
S113068099232CF41092A9031092A80309C0883F5F
S1130690914034F087EF91E09093A9038093A803ED
S11306A08091A6039091A70399232CF41092A70399
S11306B01092A60309C0883F914034F087EF91E07F
S11306C09093A7038093A603C091A803D091A90394
S11306D0CE0164E570E00E94D803162F60E08068C4
S11306E00E94DA0160E0812F80640E94DA01E090C8
S11306F0A603F090A703EC16FD066CF08E010455DA
S11307001C4F61E0F80181918F010E94DA0121966A
S1130710EC16FD06B4F787EF91E09093A90380935C
S1130720A8031092A7031092A603DF91CF911F9103
S11307300F91FF90EF9008955F9A5F985F9A289ABF
S113074060E081E20E94DA0160E088EC0E94DA0154
S113075060E086E00E94DA0160E083E10E94DA0151
S113076060E080E20E94DA0160E08CE00E94DA013D
S113077080910E01813079F488EF91E09093A90380
S11307808093A8031092A7031092A6030E94E70186
S113079010920E010AC01092A9031092A80388EFC8
S11307A091E09093A7038093A6030E9436030895D3
S11307B097FB072E16F4009407D077FD09D00E940A
S11307C0EC0307FC05D03EF4909581959F4F089566
S11307D0709561957F4F0895AA1BBB1B51E107C01B
S11307E0AA1FBB1FA617B70710F0A61BB70B881FBD
S11307F0991F5A95A9F780959095BC01CD0108954C
S1130800A0E0B0E0E6E0F4E00C94180AAE014B5F1F
S11308105F4FFA0161917191AF018091A6059091AA
S1130820A7050E945C04E2E00C94340AA0E0B0E066
S1130830ECE1F4E00C94180AAE014B5F5F4FFA014F
S113084061917191AF018091A4059091A5050E94D9
S1130850D907E2E00C94340AAEE0B0E0E2E3F4E05D
S11308600C94160A0D891E898F89988D26E02C8395
S11308701A83098397FF02C080E090E801979E8362
S11308808D83AE01455E5F4F698D7A8DCE010196F1
S11308900E945C044D815E8157FD0AC02F8138851A
S11308A0421753070CF49A01F801E20FF31F108268
S11308B02E96E4E00C94320AABE0B0E0E2E6F4E019
S11308C00C94080A6C017B018A01FC0117821682D0
S11308D0838181FFCCC1CE0101963C01F601938155
S11308E0F70193FD859193FF81917F01882309F49A
S11308F0BAC1853239F493FD859193FF81917F01CB
S1130900853229F4B60190E00E945209E7CF912C78
S1130910212C312CFFE1F315D8F08B3279F038F427
S1130920803279F08332A1F4232D20611DC08D32F1
S113093061F0803369F4232D216016C0832D826019
S1130940382EE32DE4603E2E2AC0F32DF8601DC03E
S113095037FC2DC020ED280F2A3040F08E32B9F438
S113096036FC81C1232D2064322E19C036FE06C008
S11309708AE0989E200D1124922E11C0EAE02E9E4A
S1130980200D1124222EF32DF0623F2E08C08C3648
S113099021F4832D8068382E02C0883641F4F70193
S11309A093FD859193FF81917F018111B3CF982F9E
S11309B09F7D9554933028F40C5F1F4F9FE39983D8
S11309C00DC0833631F0833771F0833509F059C097
S11309D021C0F801808189830E5F1F4F882483948E
S11309E0912C530113C02801F2E04F0E511CF80161
S11309F0A080B18036FE03C0692D70E002C06FEFA5
S1130A007FEFC5010E9409094C018201F32DFF7794
S1130A103F2E16C0280122E0420E511CF801A0808E
S1130A20B18036FE03C0692D70E002C06FEF7FEF26
S1130A30C5010E94FE084C01F32DF0683F2E82018F
S1130A4033FC1BC0822D90E088169906B0F4B601E1
S1130A5080E290E00E9452092A94F4CFF50137FC19
S1130A60859137FE81915F01B60190E00E945209A1
S1130A7021102A9421E0821A91088114910471F7BB
S1130A80E8C0843611F0893641F5F80137FE07C015
S1130A9060817181828193810C5F1F4F08C06081E6
S1130AA07181072E000C880B990B0E5F1F4FF32DDD
S1130AB0FF763F2E97FF09C09095809570956195BC
S1130AC07F4F8F4F9F4FF0683F2E2AE030E0A30105
S1130AD00E94A709882E861845C0853731F4232D36
S1130AE02F7EB22E2AE030E025C0932D997FB92EB7
S1130AF08F36C1F018F4883579F0B5C0803719F015
S1130B00883721F0B0C0E92FE061BE2EB4FE0DC0DD
S1130B10FB2DF460BF2E09C034FE0AC0292F2660C5
S1130B20B22E06C028E030E005C020E130E002C06B
S1130B3020E132E0F801B7FE07C060817181828153
S1130B4093810C5F1F4F06C06081718180E090E04B
S1130B500E5F1F4FA3010E94A709882E8618FB2D44
S1130B60FF773F2E36FE0DC0232D2E7FA22E891433
S1130B7058F434FE0BC032FC09C0832D8E7EA82E9F
S1130B8005C0B82CA32C03C0B82C01C0B92CA4FEFA
S1130B900FC0FE01E80DF11D8081803321F49A2DF0
S1130BA0997EA92E09C0A2FE06C0B394B39404C0D2
S1130BB08A2D867809F0B394A3FC11C0A0FE06C068
S1130BC0B21488F4280C922C9B180EC0B21460F452
S1130BD0B60180E290E00E945209B394F7CFB214B8
S1130BE018F42B1802C0982C212CA4FE10C0B601B6
S1130BF080E390E00E945209A2FE17C0A1FC03C04A
S1130C0088E790E002C088E590E0B6010CC08A2D28
S1130C10867859F0A1FE02C08BE201C080E2A7FCF5
S1130C208DE2B60190E00E945209891438F4B601AD
S1130C3080E390E00E9452099A94F7CF8A94F301DA
S1130C40E80DF11D8081B60190E00E9452098110E7
S1130C50F5CF222009F442CEB60180E290E00E9452
S1130C6052092A94F6CFF6018681978102C08FEF4C
S1130C709FEF2B96E2E10C94240A20FD09C0FC01AD
S1130C8023FD05C022FF02C0738362835183408326
S1130C90089544FD17C046FD17C0AB01BC01DA013D
S1130CA0FB01AA0FBB1FEE1FFF1F1094D1F74A0FC1
S1130CB05B1F6E1F7F1FCB01BA01660F771F881F52
S1130CC0991F09C033E001C034E0660F771F881F05
S1130CD0991F3150D1F7620F711D811D911D089527
S1130CE00F931F93CF93DF938C01C8010E941409C3
S1130CF0EC0197FD08C00E94EA08892BB1F7B801FE
S1130D00CE010E948E09CE01DF91CF911F910F91E8
S1130D1008958F929F92AF92BF92EF92FF920F939A
S1130D201F93CF93DF938C01D62F7A01B22E0E94AA
S1130D3014099C0133272B32310531F02D32310552
S1130D4061F48B2D8068B82ED15011F480E068C016
S1130D50C8010E94140997FDF9CFCB2DCD7F2B2D0F
S1130D60207309F58033F9F4AA24AA94AD0E09F48A
S1130D7043C0C8010E94140997FD3EC09C012F7D09
S1130D8033272835310549F4C264D250A9F1C8018A
S1130D900E94140997FF07C02FC0B6FE02C0C260AC
S1130DA001C0C261DA2D812C912C540120ED280F51
S1130DB0283080F0C4FF04C0B8010E948E0919C015
S1130DC02A3040F0C6FFF8CF2F7D3FEE320F363089
S1130DD098F727504C2FC501B4010E9449064B01D6
S1130DE05C01C260D15059F0C8010E94140997FFF8
S1130DF0DDCFC1FD04C0AACF812C912C5401C7FFC3
S1130E0008C0B094A09490948094811C911CA11C5F
S1130E10B11C2C2FB501A401C7010E943D0681E03D
S1130E20DF91CF911F910F91FF90EF90BF90AF9002
S1130E309F908F900895A0E2B0E0E1E2F7E00C9477
S1130E400B0A5C01962E7A01F9018E010F5F1F4F88
S1130E50680180E2D8011D928A95E9F7D5011396BD
S1130E608C9080E090E0612C712C30E061E070E0C7
S1130E7083FC259183FE21918F01522E211103C001
S1130E8080E090E092C02E3511F4009751F1432F89
S1130E9050E0481759073CF42D3559F12D3219F417
S1130EA0772009F103C0772009F46AC0452D4695DF
S1130EB046954695D601A40FB11D452D47708B016B
S1130EC002C0000F111F4A95E2F7A8015C91452B5F
S1130ED04C93651459F0561410F45394E7CF5A9474
S1130EE0E5CF31E004C07724739401C0712C0196DE
S1130EF0BFCF772019F08E8180628E83311103C0B9
S1130F008824839417C0F6019E012F5D3F4F808192
S1130F10809581932E173F07D1F7F2CFE114F104A6
S1130F2029F0D7018C93F70131967F019A94812C93
S1130F309920F9F0C5010E94140997FD18C0FC011D
S1130F40FF2723E0F595E7952A95E1F7EC0DFD1DC4
S1130F50208130E0AC014770552702C035952795B4
S1130F604A95E2F720FDDACFB5010E948E0981107F
S1130F7087CFE114F10411F0D7011C92C80115C008
S1130F80422F469546954695D601A40FB11D422F92
S1130F9047708B0102C0000F111F4A95E2F7A801A8
S1130FA05C91452B4C93622EA2CFA096EFE00C945B
S1130FB0270AA0E0B0E0EFEDF7E00C940B0A6C0117
S1130FC0EB015A01FC0117821682512CF601E380D1
S1130FD0FE01E3FC8591E3FE8191182FEF01882344
S1130FE009F4EEC090E00E94EA08892B21F0C601C2
S1130FF00E947006EBCF153241F4FE01E3FC15911B
S1131000E3FE1191EF01153281F4C6010E94140927
S113101097FDD4C0412F50E09C0133272417350796
S1131020A9F2B6010E948E09CBC01A3239F4E3FC4E
S11310301591E3FE1191EF0101E001C000E0F12CF4
S113104020ED210F2A3080F402606F2D70E080E0E3
S113105090E040E20E944906F62EFE01E3FC159161
S1131060E3FE1191EF01ECCF01FF03C0F11003C0C7
S1131070A7C0FF24FA94183619F01C3651F010C09A
S1131080FE01E3FC1591E3FE1191EF01183641F4E2
S113109008600460FE01E3FC1591E3FE1191EF0189
S11310A0112309F48DC0612F70E088E690E00E945E
S11310B0F308892B09F484C000FD07C0F501808082
S11310C09180C50102965C0102C0812C912C1E36D0
S11310D051F4F6014681578160E070E0202FC4018D
S11310E00E943D0673CF1336A9F401FD02C0FF240C
S11310F0F394C6010E94140997FD60C08114910401
S113110029F0F4018083C40101964C01FA94F11092
S1131110F0CF50C01B3559F49E01A4016F2DC601B8
S11311200E941B07EC01892B09F044C03EC0C60194
S11311300E94700697FD42C01F3661F128F41436F0
S113114039F1193651F128C0133771F0153701F10F
S113115023C08114910429F0F4016082C401019632
S11311604C01FA94FF2071F0C6010E9414093C015D
S113117097FD08C00E94EA08892B59F3B601C30100
S11311800E948E0981149104A9F0F401108212C006
S1131190006203C0006101C00064202FA4016F2D10
S11311A0C6010E948906811105C0F60183818073FE
S11311B029F406C000FD0ACF539408CF552019F036
S11311C0852D90E002C08FEF9FEFCDB7DEB7EFE043
S11311D00C94270A91110C94050A803219F0895055
S11311E08550C8F70895FC010590061621F00020EB
S11311F0D9F7C00108953197CF010895FC010590F6
S1131200615070400110D8F7809590958E0F9F1F04
S11312100895FC016150704001900110D8F7809549
S113122090958E0F9F1F0895CF93DF93EC012B8130
S113123020FF33C026FF0AC02F7B2B838E819F8122
S113124001969F838E838A8190E029C022FF0FC07C
S1131250E881F9818081082E000C990B009719F41C
S113126020622B831AC03196F983E8830EC0EA8585
S1131270FB85099597FF09C02B81019611F080E247
S113128001C080E1822B8B8308C02E813F812F5FB8
S11312903F4F3F832E83992702C08FEF9FEFDF914B
S11312A0CF9108950F931F93CF93DF93FB01238175
S11312B021FD03C08FEF9FEF2CC022FF16C0468193
S11312C05781248135814217530744F4A081B181A9
S11312D09D012F5F3F4F318320838C93268137817B
S11312E02F5F3F4F3783268314C08B01EC01FB0132
S11312F00084F185E02D0995892BE1F6D801169635
S11313008D919C911797019617969C938E9316979F
S1131310CE01DF91CF911F910F910895FB0123819D
S113132020FF12C026FD10C08F3F3FEF930761F0EE
S113133082832F7D206423832681378121503109C4
S113134037832683992708958FEF9FEF0895FA0135
S1131350AA27283051F1203181F1E8946F936E7FF0
S11313606E5F7F4F8F4F9F4FAF4FB1E03ED0B4E0E1
S11313703CD0670F781F891F9A1FA11D680F791F22
S11313808A1F911DA11D6A0F711D811D911DA11D33
S113139020D009F468943F912AE0269F1124301943
S11313A0305D3193DEF6CF010895462F4770405DDE
S11313B04193B3E00FD0C9F7F6CF462F4F70405D8D
S11313C04A3318F0495D31FD4052419302D0A9F7E8
S11313D0EACFB4E0A6959795879577956795BA95E2
S11313E0C9F700976105710508959B01AC010A2EA8
S11313F006945795479537952795BA95C9F7620F7F
S1131400731F841F951FA01D089599278827089589
S11314102F923F924F925F926F927F928F929F9200
S1131420AF92BF92CF92DF92EF92FF920F931F93EE
S1131430CF93DF93CDB7DEB7CA1BDB0B0FB6F8949F
S1131440DEBF0FBECDBF09942A88398848885F84DF
S11314506E847D848C849B84AA84B984C884DF8050
S1131460EE80FD800C811B81AA81B981CE0FD11D34
S11314700FB6F894DEBF0FBECDBFED010895F8940A
S1051480FFCF98
S11314820000000300000000590063000000012571
S11314926420005468726F74746C653A2025640089
S11314A225640A0D005275646465723A202564004D
S11314B2426F61743A2025642E25642056005265D9
S11314C26D6F74653A2025642E2564205600000051
S11314D200000000002F00000007000700147F1422
S11314E27F14242A7F2A12C4C8102646364955225C
S11314F2500005030000001C2241000041221C0090
S113150214083E081408083E080800005030001071
S113151210101010006060000020100804023E51F8
S113152249453E00427F40004261514946214145BE
S11315324B311814127F1027454545393C4A494915
S11315423001710905033649494936064949291EBC
S113155200363600000056360000081422410014FA
S113156214141414004122140802015109063249C8
S113157259513E7E1111117E7F494949363E4141FE
S113158241227F4141221C7F494949417F0909097E
S1131592013E4149497A7F0808087F00417F4100A2
S11315A22040413F017F081422417F404040407F58
S11315B2020C027F7F0408107F3E4141413E7F09B5
S11315C20909063E4151215E7F09192946464949C6
S11315D2493101017F01013F4040403F1F2040202B
S11315E21F3F4038403F631408146307087008071C
S11315F26151494543007F41410002040810200023
S113160241417F0004020102044040404040000185
S113161202040020545454787F48444438384444E3
S11316224420384444487F3854545418087E0901ED
S1131632020C5252523E7F0804047800447D40005A
S11316422040443D007F1028440000417F40007C3C
S1131652041804787C0804047838444444387C141C
S1131662141408081414187C7C08040408485454FC
S11316725420043F4440203C4040207C1C20402015
S11316821C3C4030403C44281028440C5050503CF0
S11316924464544C44000836410000007F000000BA
S11316A241360800040204080400003600000E510A
S11316B23111083C4140217C385456551820565566
S11316C256782055545578205556547808082A1CC3
S11316D2080E5131110838565556183855545518B4
S11316E2385556541800457C410000467D42007F1F
S11316F27F7F7F7F7F7F7F7F7F7F7F7F7F7F7C5422
S11317025655447F7F7F7F7F7F7F7F7F7F3846452B
S113171246387F7F7F7F7F38454644383C424122AA
S10917227C3C4142207CE6
S9030000FC
